:100000000C943E000C9458000C9450000C9450003A
:100010000C9450000C9450000C9450000C94500020
:100020000C9450000C9450000C9450000C94500010
:100030000C9450000C9452000C9450000C945000FE
:100040000C9450000C9450000C9450000C945000F0
:100050000C9450000C9450000C9450000C945000E0
:100060000C9450000C9450000C9450000C945000D0
:100070000C9450000C9450000C94500011241FBE9E
:10008000CFEFD8E0DEBFCDBF21E0A0E0B1E001C0FE
:100090001D92A230B207E1F70E948D000C94C000BF
:1000A0000C9400008F9381E0809301018F9118954B
:1000B0008F938FB78F939F938FE59AEE0197F1F708
:1000C00000C0000081E080930001E09A9F918F9131
:1000D0008FBF8F9118951092010110928500109298
:1000E0008400909389008093880088E0809380004A
:1000F00085E0809381001092820082E080936F00FF
:100100000895F8948FEF81B91AB8E89AE9E6F0E01B
:10011000808181608083789408950E9481002FEF10
:1001200083E294EF215080409040E1F700C000004E
:1001300081E082B92FEF80E792E02150804090402B
:10014000E1F700C0000012B8109201011092000106
:1001500084E89EE10E946B0080910101811104C03E
:10016000809100018823C1F3F894809101018111ED
:1001700005C082E082B990E080E0089581E0FACF86
:04018000F894FFCF21
:00000001FF
