:100000000C943E000C9448000C9448000C9448005A
:100010000C9448000C9448000C9448000C94480040
:100020000C9448000C9448000C9448000C94480030
:100030000C9448000C9448000C9448000C94480020
:100040000C9448000C9448000C9448000C94480010
:100050000C9448000C9448000C9448000C94480000
:100060000C9448000C9448000C9448000C944800F0
:100070000C9448000C9448000C94480011241FBEB6
:10008000CFEFD8E0DEBFCDBF0E944A000C94A8009D
:100090000C9400008FEF81B91AB8E0E2F3E0C9E1F7
:1000A00004E610E0D1E030E020E0C901BF010E9489
:1000B0008000C69FA001C79F500D1124B801641B8A
:1000C000750BD2B990E080E08417950731F0A2E477
:1000D000AA95F1F700C00196F7CF12B890E080E042
:1000E0008617970731F042E44A95F1F700C0019670
:1000F000F7CF2F5F3F4F203A8FE03807B1F6D3CFCD
:1001000097FB072E16F4009407D077FD09D00E94C4
:10011000940007FC05D03EF4909581959F4F08957B
:10012000709561957F4F0895AA1BBB1B51E107C0D5
:10013000AA1FBB1FA617B70710F0A61BB70B881F77
:10014000991F5A95A9F780959095BC01CD01089506
:04015000F894FFCF51
:00000001FF
