:100000000C943E000C9448000C9448000C9448005A
:100010000C9448000C9448000C9448000C94480040
:100020000C9448000C9448000C9448000C94480030
:100030000C9448000C9448000C9448000C94480020
:100040000C9448000C9448000C9448000C94480010
:100050000C9448000C9448000C9448000C94480000
:100060000C9448000C9448000C9448000C944800F0
:100070000C9448000C9448000C94480011241FBEB6
:10008000CFEFD8E0DEBFCDBF0E944A000C94A100A4
:100090000C9400008FEF81B91AB8EEE1F0E0C4E6ED
:1000A000D0E041E030E020E0C901BF010E947900CA
:1000B000DE01A61BB70B42B990E080E05AE15A95E9
:1000C000F1F700C00196A817B907C1F712B890E080
:1000D00080E08617970731F05AE15A95F1F700C092
:1000E0000196F7CF2F5F3F4F283B8BE03807E1F6B3
:1000F000D9CF97FB072E16F4009407D077FD09D0CF
:100100000E948D0007FC05D03EF4909581959F4F8D
:100110000895709561957F4F0895AA1BBB1B51E10F
:1001200007C0AA1FBB1FA617B70710F0A61BB70B67
:10013000881F991F5A95A9F780959095BC01CD010C
:060140000895F894FFCFC2
:00000001FF
