:100000000C943E000C9448000C9448000C9448005A
:100010000C9448000C9448000C9448000C94480040
:100020000C9448000C9448000C9448000C94480030
:100030000C9448000C9448000C9448000C94480020
:100040000C9448000C9448000C9448000C94480010
:100050000C9448000C9448000C9448000C94480000
:100060000C9448000C9448000C9448000C944800F0
:100070000C9448000C9448000C94480011241FBEB6
:10008000CFEFD8E0DEBFCDBF0E944A000C946100E4
:100090000C9400008FEF81B91AB880E091E022E063
:1000A0004A9BFECFEFE1FEE43197F1F700C000007C
:1000B0004A9BF6CF882319F022B98927F1CF92B94C
:0600C000FCCFF894FFCF15
:00000001FF
